:100000000C94A0010C94C1010C94C1010C94C10189
:100010000C94C1010C94C1010C94C1010C94C10158
:100020000C94C1010C94C1010C94C1010C94C10148
:100030000C94C1010C94C1010C94C1010C94C10138
:100040000C94C1010C94C1010C94C1010C94C10128
:100050000C94C1010C94DB020C94C1010C94C101FD
:100060000C94C1010C94C1010C94C1010C94C10108
:100070000C94C1010C94C1010C94C1010C94C101F8
:100080000C94C1010C94C1010C94C1010C94C101E8
:100090000C94C1010C94C1010C94C1010C94C101D8
:1000A0000C94C1010C94C1010C94C1010C94C101C8
:1000B0000C94C1010C94C1010C94C1010C94C101B8
:1000C0000C94C1010C94C1010C94C1010C94C101A8
:1000D0000C94C1010C94C1010C94C1010C94C10198
:1000E0000C94C1012B012B015A015F0175012B01F9
:1000F0002B015A015F010C9489000C94A70C0C94FD
:1001000075010C945F010C945A010C942B010C9412
:10011000BF0000E212E00F2EF8E4EF2EF2E0FF2E17
:10012000F02D80911F02882309F10FB6F8940F92E9
:10013000D8011596ED91FC911697C681D781CE0115
:1001400002960E94210380911E02815080931E021C
:1001500080911F02815080931F020F900FBECE012D
:100160000E943F0680911F028111DFCFF70180813D
:10017000823010F00E9416020E94C00CD2CFCF93A2
:10018000DF9300D000D0CDB7DEB7CE0101965C0181
:100190006624639400E010E0712CE82EFB2CE091C3
:1001A000AF02F091B0028081882309F4B5C00580C8
:1001B000F681E02DC080D1800E947E07C5010E949B
:1001C000E10B4C01898181111BC08C149D0438F016
:1001D0000E949708B401C6010E94B60B90C0472D3B
:1001E000B601681979098091AB029091AC020E9426
:1001F000DD040E949708811182C00E9416027FC010
:100200000E9497087CC0898188230CF478C0CC8038
:10021000DD80D6011A968D919C911B97892B21F038
:10022000C60102960E942103CE0106960E94E10BB0
:100230004C01E9818E2FEE0F990BAA0BBB0BFC0131
:100240003197E930F10508F05AC08827EE58FF4F82
:100250008F4F0C94530EF60182898160828B2A8124
:100260003B8164857585620F731FA401C6010E94DE
:10027000630B882309F443C0D60152968C915297A0
:1002800082FF0DC06A817B811C968D919C911D9788
:10029000680F791FA401C6010E94920B03C08E7FD4
:1002A000F601828BD6015096ED91FC915197C601D3
:1002B000199525C0F60182898E7F828B20C0D601D8
:1002C00052968C915297816052968C9352976A8184
:1002D0007B811D967C936E931C97680D791D94010C
:1002E000A401C6010E94630B0AC0F601828981FD48
:1002F00004C0C6010E94040E02C08E7F828B402F74
:10030000512F6E2D7F2D8091AB029091AC020E94F7
:100310004404811178CF43CF0E947E07C5010E941B
:10032000E10B4C01898181116BCFE091AD02F0911D
:10033000AE028081462D8111472DC02ED12E50CF87
:1003400011241FBECFEFD1E2DEBFCDBF00E00CBF56
:1003500012E0A0E0B2E0ECECFCE100E00BBF02C078
:1003600007900D92A231B107D9F727E0A2E1B2E0E0
:1003700001C01D92AD3BB207E1F70E94B00C0C9496
:10038000640E0C940000FC016083319770833197F8
:10039000108231971082319720E8208331971082A4
:1003A000319710823197108277974083319750832D
:1003B000869708958EE087BD82E084BD85E085BD87
:1003C000EEE6F0E0808182608083A0916C02B091C3
:1003D0006D02CD91CDBFDD91DEBFFF91EF91DF9139
:1003E000CF91BF91AF919F918F917F916F915F91CD
:1003F0004F913F912F911F910F91FF90EF90DF90C0
:10040000CF90BF90AF909F908F907F906F905F90B4
:100410004F903F902F901F900F900CBE0F900BBEEF
:100420000F900FBE0F90089581E008950F920FB6C0
:10043000F8940F920BB60F920CB60F921F921124E4
:100440002F923F924F925F926F927F928F929F92E4
:10045000AF92BF92CF92DF92EF92FF920F931F93D2
:100460002F933F934F935F936F937F938F939F93BC
:10047000AF93BF93CF93DF93EF93FF93A0916C0261
:10048000B0916D020DB60D920EB60D920E948909C3
:10049000A0916C02B0916D02CD91CDBFDD91DEBF18
:1004A000FF91EF91DF91CF91BF91AF919F918F918C
:1004B0007F916F915F914F913F912F911F910F917C
:1004C000FF90EF90DF90CF90BF90AF909F908F9074
:1004D0007F906F905F904F903F902F901F900F9064
:1004E0000CBE0F900BBE0F900FBE0F9008950F9291
:1004F0000FB6F8940F920BB60F920CB60F921F9294
:1005000011242F923F924F925F926F927F928F921F
:100510009F92AF92BF92CF92DF92EF92FF920F9392
:100520001F932F933F934F935F936F937F938F937B
:100530009F93AF93BF93CF93DF93EF93FF93A091DC
:100540006C02B0916D020DB60D920EB60D920E9426
:100550008E0781110E948909A0916C02B0916D02F1
:10056000CD91CDBFDD91DEBFFF91EF91DF91CF91B6
:10057000BF91AF919F918F917F916F915F914F91BB
:100580003F912F911F910F91FF90EF90DF90CF90AF
:10059000BF90AF909F908F907F906F905F904F90A3
:1005A0003F902F901F900F900CBE0F900BBE0F909E
:1005B0000FBE0F9008950E9477021895FC010396D4
:1005C000928381832FEF3FEF348323839683858348
:1005D0009087878310820895FC0111861086089504
:1005E000CF93DF93EB01488159814F3F2FEF5207A3
:1005F00021F4FC01A781B0850DC0DC01139601C078
:10060000DF011296ED91FC91139720813181421701
:100610005307B0F71296ED91FC911397FB83EA8391
:10062000D583C483BD83AC831396DC93CE9312979A
:1006300099878887FC0120812F5F2083DF91CF91EC
:100640000895CF93DF93FC01A085B185C281D3814A
:10065000848195819D838C83C481D581828193819E
:100660009B838A8311968D919C911297E817F907C5
:1006700031F48481958112969C938E931197118603
:1006800010868C9181508C938C91DF91CF9108953D
:100690000FB6F8940F92FC01928D0F900FBE81E07F
:1006A000911180E00895FC01448D4423A9F050E0AD
:1006B00026813781240F351F3783268384819581D6
:1006C0002817390720F08081918197838683CB0199
:1006D000668177810E945B0E0895EF92FF920F93DF
:1006E0001F93CF938C010FB6F8940F92FC01C68D27
:1006F0001C16ACF48189811106C011C0F8018189F2
:10070000811105C00CC07801F1E1EF0EF11CC701A9
:100710000E94650A81110E945F0BC15079F78FEF2B
:10072000F801868F0F900FBE0FB6F8940F92C58D0B
:100730001C16ACF48085811106C011C0F8018085BB
:10074000811105C00CC07801F8E0EF0EF11CC70163
:100750000E94650A81110E945F0BC15079F78FEFEB
:10076000F801858F0F900FBECF911F910F91FF90D1
:10077000EF900895CF93DF93EC01262F892B09F496
:1007800050C06B8D662309F44EC070E08FEF9FEF71
:100790000E943F0E8C8D90E06817790708F445C0E1
:1007A0000FB6F8940F92E881F9818B8D4C8D90E013
:1007B00050E0849FB001859F700D949F700D1124AF
:1007C0006E0F7F1F7D836C831A8EFB83EA830197F4
:1007D000849FB001859F700D949F700D1124CF01EF
:1007E000860F971F9F838E838FEF8D8F8E8F2111A2
:1007F0000CC08885882389F0CE0108960E94650A7E
:10080000882359F00E94160208C0CE0108960E9463
:10081000DE02CE0141960E94DE020F900FBE81E003
:1008200005C080E003C080E001C080E0DF91CF918F
:100830000895CF93DF93E9018823D1F0209701F148
:100840004115510529F0611108C0C0E0D0E018C081
:10085000662389F0C0E0D0E013C091E09F8F5983F8
:1008600048838B8F6C8F61E0CE010E94BA0308C071
:10087000C0E0D0E005C091E09F8F39832883F1CF9D
:10088000CE01DF91CF9108959F92AF92BF92CF9208
:10089000DF92EF92FF920F931F93CF93DF9300D0DD
:1008A0001F921F92CDB7DEB78C015B015D834C8335
:1008B000E12C992493946C0181E1C80ED11C0FB6F0
:1008C000F8940F92F801F28CFF20A9F0B501C8014D
:1008D0000E945303FA94F801F28E8085882339F040
:1008E000C80108960E94650A81110E9416020F90A5
:1008F0000FBE81E051C08C819D81892B21F40F9026
:100900000FBE80E049C0E11005C0CE0101960E94F3
:10091000230BE92C0F900FBE0E947E070FB6F894B0
:100920000F92F801858D8F3F09F4158EF801868DA1
:100930008F3F09F4168E0F900FBEBE016C5F7F4F84
:10094000CE0101960E942E0B81111AC0C8010E948F
:100950004803882379F06C817D81C6010E940A0AD0
:10096000C8010E946D030E9497088111A8CF0E94C0
:100970001602A5CFC8010E946D030E9497089FCF61
:10098000C8010E946D030E949708C8010E94480395
:10099000882309F494CF80E00F900F900F900F9070
:1009A0000F90DF91CF911F910F91FF90EF90DF900B
:1009B000CF90BF90AF909F900895CF93DF93EC01BD
:1009C0000FB6F8940F928D8D8F3F09F41D8E8E8D8A
:1009D0008F3F09F41E8E0F900FBE8A8D811104C0C7
:1009E000CE0141960E941C0ACE010E946D03DF9148
:1009F000CF910895E0913402F09135028081811108
:100A000007C08FEF9FEF9093140280931302089515
:100A1000E0913402F09135020580F681E02D80816D
:100A20009181909314028093130208956F927F92A4
:100A30008F929F92AF92BF92CF92DF92EF920F93DD
:100A40001F93CF93DF93CDB7DEB74C01215031090F
:100A5000D50157966D907C905897620E731E611564
:100A60007105E1F0FB01808159968C938081882388
:100A700091F0A501465E5F4F3196685F7F4FCF01D1
:100A80002191DA012D93AD01DC018C91882319F0BD
:100A9000E617F707A1F7F50110A203C0D501599693
:100AA0001C92B3E0BE1520F40F2EF3E0EF2EF02DD4
:100AB000F501E68AC50102960E94EC02C5010C967A
:100AC0000E94EC02D5011996BC92AE92189784E070
:100AD00090E08E1991091D969C938E931C975396C6
:100AE000BC92AE92529784E0F501B196DF011D925F
:100AF0008A95E9F7F50115A2A801B401C3010E9486
:100B0000C301D5018D939C93C114D10419F0F60152
:100B1000B182A082DF91CF911F910F91EF90DF9072
:100B2000CF90BF90AF909F908F907F906F900895DF
:100B3000CF93DF93EC010FB6F8940F9280911E02D1
:100B40008F5F80931E0280916C0290916D02892BC1
:100B5000A9F5D0936D02C0936C0280911E02813082
:100B6000E9F588E492E00E94DE0281E592E00E94CD
:100B7000DE028AE592E00E94DE0283E692E00E94B5
:100B8000DE028FE392E00E94DE0286E392E00E94A2
:100B9000DE0289E292E00E94DE0280E292E00E94A0
:100BA000DE028FE392E0909335028093340286E375
:100BB00092E0909333028093320210C080911A0227
:100BC00081110CC0E0916C02F0916D0296898E89C2
:100BD000891720F0D0936D02C0936C0280911502AA
:100BE0008F5F809315028E8990911B02981710F4E5
:100BF00080931B0290E0FC01EE0FFF1FEE0FFF1F22
:100C0000EE0FFF1F8E0F9F1FFC01E85BFD4F018061
:100C1000F281E02DFD83EC83848195819F838E8317
:100C2000A481B581CE01029613969C938E93129760
:100C300095838483EE89F0E0CF01880F991F880F98
:100C4000991F880F991FE80FF91FE85BFD4FFB877D
:100C5000EA8780818F5F80830F900FBE80911A0298
:100C6000882351F0E0916C02F0916D0296898E8993
:100C7000981710F40E941602DF91CF910895CF9338
:100C8000DF93EC018EA1811108C08F89988D0E949D
:100C9000040ECE010E94040E05C0813019F4CE016D
:100CA0000E94040EDF91CF9108950F931F93CF936D
:100CB000DF93EC0100911C0210911D0280916C02E7
:100CC00090916D0202960E942103C00FD11FE09106
:100CD0006C02F0916D02D383C283C017D10768F410
:100CE00060916C0270916D0280913202909133029A
:100CF0006E5F7F4F0E94F00217C060916C0270918E
:100D00006D0280913402909135026E5F7F4F0E9498
:100D1000F0028091130290911402C817D90720F4B1
:100D2000D0931402C0931302DF91CF911F910F91C2
:100D300008956F927F928F929F92AF92BF92CF92BF
:100D4000DF92EF920F931F93CF93DF931F921F9227
:100D5000CDB7DEB7A114B104B1F0C114D10499F03C
:100D6000D5015896DC92CE925797E2E09696EC9396
:100D7000812C912CFE0131966F010E941605C50150
:100D80000E94980502C01A82198289819A810F9067
:100D90000F90DF91CF911F910F91EF90DF90CF9047
:100DA000BF90AF909F908F907F906F9008952F92FB
:100DB0003F924F925F926F927F928F929F92AF92EB
:100DC000BF92CF92DF92EF92FF920F931F93CF9338
:100DD000DF933C011B015A012901CA010E94370D12
:100DE0006C01892BF9F087E290E00E94370DEC014D
:100DF0000097A9F0D88ECF8A1EA2950140E050E05E
:100E0000812C912C5C016701E02E8201B101C301AC
:100E10000E941605CE010E94980581E004C0C6011B
:100E20000E94040E8FEFDF91CF911F910F91FF90E1
:100E3000EF90DF90CF90BF90AF909F908F907F907A
:100E40006F905F904F903F902F900895AF92BF9218
:100E5000CF92DF92EF920F931F93CF93DF93CDB793
:100E6000DEB728970FB6F894DEBF0FBECDBF188649
:100E70001F821E821D82AE014F5F5F4FBE016B5FFE
:100E80007F4FCE0107960E94C20CAF80B884CD8000
:100E9000DE8029813A814B815C81E12C00E010E009
:100EA00061E072E089E890E00E949906892BA1F048
:100EB0000E94520C813081F4F8948FEF9FEF909351
:100EC00014028093130281E080931A0210921D0293
:100ED00010921C020E94DA018091000228960FB63F
:100EE000F894DEBF0FBECDBFDF91CF911F910F9160
:100EF000EF90DF90CF90BF90AF9008958091120255
:100F00008F5F8093120208950FB6F8940F9280912C
:100F10001C0290911D020F900FBE0895EF92FF9258
:100F20000F931F93CF93DF93809112028111EEC034
:100F3000C0911C02D0911D027E018FEFE81AF80AC1
:100F4000F0921D02E0921C02E114F104B9F48091C8
:100F50003402909135022091320230913302309365
:100F600035022093340290933302809332028091B1
:100F700016028F5F809316020E94FA04809113027A
:100F800090911402E816F90610F480E0B9C080E0F0
:100F900061E0E0913402F09135029081911107C037
:100FA0002FEF3FEF3093140220931302A9C0E0917A
:100FB0003402F09135020580F681E02D0680F7813C
:100FC000E02D22813381E216F30628F430931402D7
:100FD0002093130295C0A285B38524813581468173
:100FE0005781E9015D834C83268137814481558196
:100FF000E9015B834A83AF014E5F5F4F11962D91EC
:101000003C9112972417350731F4268137811296C7
:101010003C932E931197138612869C9191509C932A
:10102000A489B589109719F126853785008911891A
:10103000E9011D830C832089318906851785E90123
:101040001B830A8311960D911C9112979F01245FB7
:101050003F4F0217130731F42089318912963C93D0
:101060002E931197158A148A9C9191509C932689EE
:1010700090911B02921710F420931B0230E0D901CB
:10108000AA0FBB1FAA0FBB1FAA0FBB1F2A0F3B1F14
:10109000D901A85BBD4F11960D90BC91A02DB583D1
:1010A000A48314962D913C9115973783268314962B
:1010B0002D913C911597E9015B834A8315965C93CA
:1010C0004E931497A689B0E09D01220F331F220F83
:1010D000331F220F331FA20FB31FA85BBD4FB3876F
:1010E000A2879C919F5F9C93A0916C02B0916D022E
:1010F000268956969C91291708F44BCF862F49CF05
:1011000090911702992361F081E00AC08091180242
:10111000909119020196909319028093180280E031
:10112000DF91CF911F910F91FF90EF9008951F9342
:10113000CF93DF930FB6F8940F92809112028150F3
:1011400080931202809112028111C6C080911E020A
:1011500081119BC0C4C0DB011596ED91FC911697DF
:101160000680F781E02DA489B58986859785208939
:101170003189EC013D832C838089918926853785CF
:10118000EC013B832A83CF010C9611962D913C9163
:1011900012972817390731F48089918912969C9308
:1011A0008E931197158A148A8C9181508C93A28505
:1011B000B3858481958126813781EC013D832C8321
:1011C0008681978124813581EC013B832A839F01AD
:1011D0002E5F3F4F11968D919C9112978217930726
:1011E00031F48681978112969C938E931197138682
:1011F00012868C9181508C93868990911B0298174E
:1012000010F480931B0290E0DC01AA0FBB1FAA0F11
:10121000BB1FAA0FBB1F8A0F9B1FDC01A85BBD4F22
:1012200011960D90BC91A02DB583A48314968D9139
:101230009C9115979783868314968D919C91159711
:10124000EC013B832A8315963C932E931497A68931
:10125000B0E0CD01880F991F880F991F880F991F43
:10126000A80FB91FA85BBD4FB387A2878C918F5F72
:101270008C93A0916C02B0916D02968956968C91D8
:10128000981740F04093170205C0E0E0F0E069E2F3
:1012900072E041E0DB018C9181115DCFEF2B11F009
:1012A0000E94FA04C0911802D0911902209761F0AF
:1012B00011E00E948E078111109317022197C9F740
:1012C000109219021092180280911702882331F0AF
:1012D0000E94160281E003C080E001C080E00F9010
:1012E0000FBEDF91CF911F910895CF93DF93EC0153
:1012F000892B51F00E947E0760E0CE010E945506C6
:101300000E949708811102C00E941602DF91CF91BE
:10131000089580911202882321F081E080931702C2
:10132000089510921702A0916C02B0916D02E091A5
:101330006C02F0916D022D913C918789908D8217FE
:10134000930760F060916C0270916D0280916C0265
:1013500090916D02675E7F4F0E94C10C20911B022D
:10136000822F90E0FC01EE0FFF1FEE0FFF1FEE0F2C
:10137000FF1FE80FF91FE85BFD4F3081311111C0ED
:101380002150822F90E0FC01EE0FFF1FEE0FFF1F98
:10139000EE0FFF1FE80FF91FE85BFD4F308133238D
:1013A00079F3AC01440F551F440F551F440F551FCF
:1013B000480F591FDA01A85BBD4F1196ED91FC91C2
:1013C00012970280F381E02D1296FC93EE93119711
:1013D000455B5D4FE417F50729F442815381FD0118
:1013E00052834183FC01EE0FFF1FEE0FFF1FEE0F34
:1013F000FF1F8E0F9F1FFC01E85BFD4F0180F281F4
:10140000E02D8681978190936D0280936C022093EA
:101410001B020895CF93DF93EB0160916C027091F2
:101420006D02645F7F4F0E94F00261E0CE010E9476
:101430005506DF91CF9108950F931F93CF93DF93BC
:10144000FC018B01A181B28180916C0290916D02AF
:10145000EC01BF87AE8780916C0290916D0214966B
:101460002D913C911597EC01398B288B14968D9119
:101470009C91159720916C0230916D02245F3F4F33
:10148000EC013B832A8320916C0230916D02245F32
:101490003F4F15963C932E931497A0916C02B091F8
:1014A0006D025596FC93EE93549790819F5F9083C5
:1014B000442311F00FEF1FEF642FC8010E9455065F
:1014C000DF91CF911F910F910895CF93DF93DC01AE
:1014D0001596ED91FC9116970680F781E02DA48971
:1014E000B589C685D785808991899D838C83C0897C
:1014F000D189868597859B838A839F01245F3F4F8F
:1015000011968D919C9112978217930731F48089DF
:10151000918912969C938E931197158A148A8C91B7
:1015200081508C9380911202811160C0A285B38595
:10153000C481D581868197819D838C83C681D78123
:10154000848195819B838A839F012E5F3F4F1196F3
:101550008D919C9112978217930731F48681978120
:1015600012969C938E931197138612868C918150BC
:101570008C93868990911B02981710F480931B021C
:1015800090E0DC01AA0FBB1FAA0FBB1FAA0FBB1F55
:101590008A0F9B1FDC01A85BBD4F11960D90BC917B
:1015A000A02DB583A48314968D919C911597978354
:1015B00086831496CD91DC9115973B832A831596EB
:1015C0003C932E931497A689B0E0CD01880F991F04
:1015D000880F991F880F991FA80FB91FA85BBD4FCF
:1015E000B387A2878C918F5F8C931CC049E252E035
:1015F000DA011196CD91DC911297D787C6878C813D
:101600009D81918B808B8C819D81DC0113963C9315
:101610002E9312973D832C83558B448BDA018C914A
:101620008F5F8C93A0916C02B0916D029689569653
:101630008C91891720F481E08093170201C080E02B
:10164000DF91CF91089520911602FC012083209113
:101650001C0230911D023283218308950FB6F89445
:101660000F9220911C0230911D02DC0111964D91C8
:101670005C911297E0911602FC91FE1741F024173D
:10168000350728F0FB011182108281E015C0241B70
:10169000350BDB014D915C912417350748F4FB01B4
:1016A000421B530B518340830E94230B80E004C0F4
:1016B000FB011182108281E00F900FBE089581E03E
:1016C000809317020895FC0173836283918780875A
:1016D0004617570790F0421B530B84859585481792
:1016E0005907E0F4BF016E5F7F4F8091AD0290918A
:1016F000AE020E94F00280E008954217530718F4EA
:101700006217730768F4BF016E5F7F4F8091AF026D
:101710009091B0020E94F00280E0089581E0089567
:1017200081E00895EF92FF920F931F93CF93DF9381
:10173000EC018B017A0108C08C859D85080F191F6B
:10174000E889F989CE0119956C857D85600F711F37
:101750009801A701CE010E94630B8111EDCFDF91AB
:10176000CF911F910F91FF90EF900895EF92FF920C
:101770000F931F93CF93DF938C017B01E091AF0216
:10178000F091B0020580F681E02DC681D781CE01AF
:1017900002960E9421038A8982FF06C0A701B80130
:1017A000CE010E94920B02C08E7F8A8BE889F98954
:1017B000CE011995DF91CF911F910F91FF90EF907E
:1017C00008950F931F93CF93DF938C010E9484079A
:1017D000EC018091A7029091A802C817D90738F5AB
:1017E000E091AF02F091B0028081882381F0058002
:1017F000F681E02D6FEF7FEF808191810E94B60B23
:10180000E091AF02F091B00280818111F0CF809120
:10181000AD029091AE029093B0028093AF02F0932C
:10182000AE02E093AD0281E0F801808302C0F801CE
:101830001082D093A802C093A702CE01DF91CF916E
:101840001F910F9108950F930FB6F8940F92809106
:10185000AB029091AC02892B09F58AEB92E00E94D1
:10186000DE0281EB92E00E94DE028AEB92E090932E
:10187000B0028093AF0281EB92E09093AE0280932E
:10188000AD0200E02EE632E04EE852E065E085E091
:101890000E9419049093AC028093AB020F900FBE8C
:1018A0000F910895AF92BF92CF92DF92EF920F9374
:1018B0001F93CF93DF93CDB7DEB728970FB6F89479
:1018C000DEBF0FBECDBF0E94230C8091AB02909172
:1018D000AC02892B59F118861F821E821D82AE012F
:1018E0004F5F5F4FBE016B5F7F4FCE0107960E9437
:1018F000D60CAF80B884CD80DE8029813A814B81BF
:101900005C816894EE24E1F800E010E066E072E0AB
:101910008FEB90E00E9499069C019093AA0280931D
:10192000A90281E0232B19F480E001C080E0289611
:101930000FB6F894DEBF0FBECDBFDF91CF911F91E0
:101940000F91EF90DF90CF90BF90AF900895279ABE
:1019500085B1805885B988EE93E00E947509F8CF6B
:10196000E12CF12C01E020E030E048EC50E06EE0AA
:1019700072E087EA9CE00E94D7060E942607FFCF0C
:101980000895FFCF2EE933E0FC013183208384E406
:1019900093E0FB01918380838AE590E0A0E0B0E0D2
:1019A000FA0180839183A283B38308952DE133E00C
:1019B000FC013183208383EC92E0FB0191838083DF
:1019C0008AE590E0A0E0B0E0FA0180839183A283F1
:1019D000B3830895CF93DF93DC01E1EDF3E001C021
:1019E000F901208131812A173B07D0F3828193814D
:1019F000AF01480F591FA417B50749F412964D912E
:101A00005C911397840F951F93838283DF01129655
:101A10008D919C911397ED01C80FD91F2C173D078D
:101A2000D9F42091CF033091D003C217D30781F0AE
:101A30002A813B81820F931F13969C938E9312975A
:101A4000C081D1818881998111969C938E9307C022
:101A50001196DC93CE9303C011963C932E93AE1750
:101A6000BF0711F0B183A083DF91CF910895CF928A
:101A7000DF92EF92FF920F931F93CF93DF93EC01CE
:101A80000E947E078091CF039091D003892B41F56E
:101A9000E1EDF3E0A5EDB3E0B183A0831382128200
:101AA000E9EBF7E0F093D003E093CF0313821282C7
:101AB0001182108284EE93E013969C938E9312977A
:101AC000ED93FC939093CC038093CB039093CE0340
:101AD0008093CD0380E090E89093C6038093C50384
:101AE000E090C503F090C603C7018C239D23892B8A
:101AF00009F06DC0209709F46DC09E012C5F3F4F27
:101B0000C217D30708F069C02115310509F468C070
:101B10000091CD031091CE030217130708F463C0A0
:101B2000C091D103D091D203E1EDF3E002C0FE01F8
:101B3000EC018A819B818217930720F48881998127
:101B40000097A9F78091CF039091D003C817D907C8
:101B500009F44CC0C080D18084E0C80ED11C8881BB
:101B60009981918380834A815B81421B530B493069
:101B7000510550F0CE01820F931FFC015383428325
:101B80003B832A830E94EA0C8A819B81081B190BE4
:101B90001093CE030093CD032091CB033091CC035F
:101BA0000217130720F41093CC030093CB03E82A09
:101BB000F92AFB82EA82198218828091C9039091E6
:101BC000CA0301969093CA038093C90311C0C12C24
:101BD000D12C0EC0C12CD12C0BC0C12CD12C08C0D3
:101BE000C12CD12C05C0C12CD12C02C0C12CD12CB0
:101BF0000E949708C601DF91CF911F910F91FF902E
:101C0000EF90DF90CF900895CF93DF930097A1F1ED
:101C1000FC013497228133814091C5035091C60362
:101C2000B90164237523672B39F160817181672BBA
:101C300019F5EF01409550952423352333832283F2
:101C40000E947E072091CD033091CE038A819B8133
:101C5000820F931F9093CE038093CD03CE010E94F9
:101C6000EA0C8091C7039091C80301969093C80332
:101C70008093C7030E949708DF91CF910895AA1B14
:101C8000BB1B51E107C0AA1FBB1FA617B70710F067
:101C9000A61BB70B881F991F5A95A9F78095909599
:101CA000BC01CD010895EE0FFF1F881F8BBF079069
:101CB000F691E02D1994FB01DC0102C001900D9218
:0C1CC00041505040D8F70895F894FFCF31
:101CCC000349444C4500546D7220537663004C45D7
:021CDC004400C2
:00000001FF
